:020000040100F9
:1040000010600020E9400001F1400001F340000190
:1040100000000000000000000000000000000000A0
:10402000000000000000000000000000F54000015A
:104030000000000000000000F7400001F94000010E
:10404000FB400001FB400001FB400001FB40000180
:10405000FB400001FB400001FB400001FB40000170
:10406000FB400001FB400001FB400001FB40000160
:10407000FB400001FB400001FB400001FB40000150
:10408000FB400001FB400001FB400001FB40000140
:10409000FB400001FB400001FB400001FB40000130
:1040A000FB400001FB400001FB400001FB40000120
:1040B000DD440001FB400001FB400001FB4000012A
:1040C0000448854600F042F800480047DD480001FA
:1040D000C046C0461060002040BA7047C0BA704762
:1040E0000138FDD17047000004488047044800476C
:1040F000FEE7FEE7FEE7FEE7FEE7FEE741430001DD
:10410000C140000103460B439B0703D009E008C9E7
:10411000121F08C0042AFAD203E00B780370401C77
:10412000491C521EF9D27047D2B201E00270401C05
:10413000491EFBD270470022F6E710B513460A4627
:1041400004461946FFF7F0FF204610BD064C012536
:10415000064E05E0E36807CC2B430C3C984710342F
:10416000B442F7D3FFF7B0FF2853000148530001D2
:104170000B680022002B56D0F0B401240B68944049
:1041800023424AD04B68022B01D0122B16D11307C1
:104190000AD5456A5307DB0E0F269E40B5434E698C
:1041A0009E402E43466209E0056A5307DB0E0F2648
:1041B0009E40B5434E699E402E4306624B68012BDC
:1041C00005D0112B03D0022B01D0122B06D145684C
:1041D000DB06DB0FA54393402B4343600568530088
:1041E00003279F400E79BD43B607B60F9E402E436E
:1041F0000660C5688E68BD439E402E43C6608568D4
:104200000126A543CC6894402C438460C46A9E4038
:104210000D69B4439D402543C5620B68521CD340D1
:10422000ABD1F0BC704770478162704781617047C5
:1042300010B400214156FF23CAB29207D40E42782F
:10424000A3409207120EA24000290BDA0907090FBA
:1042500008398C081049A4006118CC699C431443A8
:10426000CC6107E08C080D49A40061180C689C43E0
:1042700014430C60827801210078002A04D0C00623
:10428000C00E8140064803E0C006C00E81400548CC
:10429000016010BC7047000000ED00E000E400E0A9
:1042A00000E100E080E100E010B5EFF310840121AF
:1042B00081F31088FF2109064018034909688847DF
:1042C00084F3108810BD00000040002010B508489D
:1042D000064901600749416007498160C92292008F
:1042E00006490748FFF70EFF10BD0000F54000200B
:1042F00000400020894100205D400020444B000127
:104300005440002010B5EFF31084012383F310888C
:10431000FF231B06C018034B5B68984784F3108883
:1043200010BD000000400020044A0029916901D01E
:10433000014300E08143916170470000001002409A
:10434000F0B54F4C83B0E06921040843E06181205F
:104350004C4D000628634C4868614C484C49286223
:10436000032208689203904308603421494800F012
:1043700099F8484B484F1869484E411C2AD00028EC
:1043800028D0A9691A7849094901D206D20E0A43F0
:10439000AA612168EA139143216021687F221202F9
:1043A00091430002084320606068384360606068A1
:1043B0000721090288436060606830436060206ABA
:1043C000374908402062206AD96809020843206200
:1043D00003B0F0BD6168204639436160626807211F
:1043E00009028A4362606168314361600021029181
:1043F0007D21C90001910021009101687F274904B6
:104400004D0E016800240122D20391430160161170
:104410001B4908687F22120290432A0202430A6065
:104420000520FFF75DFE0120FFF75AFE1448406BA0
:10443000800704D420460199641C8842F3D91048AF
:10444000C06B80B2B04201D9811B00E0311AB0428A
:1044500001D32F4600E000950098C019C005000E5A
:10446000A84203D0054602988142D1D80448416849
:1044700049084900416041684907FCD403B0F0BDD8
:1044800000100240007000400F08000018000200F9
:104490000010014020400020000001000004000046
:1044A000FF00F8FFF0B5D1B00D460646EFF31084DB
:1044B000FF2204AF4132084968460137FFF722FE68
:1044C000012080F310882A4631460003B84784F360
:1044D000108851B0F0BD0000044A000138B5184CF6
:1044E0002021204600F066F8002827D0204600F062
:1044F00068F8154B134A196850541078AA281DD132
:10450000491C1960FF2919D90020A41518602146FB
:104510000E48FFF710FE22460A490C48FFF7F2FD4D
:104520000120694608700146094A684600F060F8B3
:10453000002803D007A29C2100F08EF938BD0000AE
:1045400000380140045500200C4000200457002092
:10455000454900012E2E5C7372635C6D61696E2E9D
:104560006300000010B40B06CC065B0FE40E0121C3
:10457000A140012B07D0022B07D01430002A02687B
:1045800005D00A4304E00C30F8E71030F6E78A4320
:10459000026010BC704700000029818903D001220D
:1045A0005203114301E0024A11408181704700002B
:1045B000FFDF00000246128800200A4200D00120DE
:1045C00070478088C005C00D7047C905C90D81803E
:1045D000704702E008C8121F08C1002AFAD17047CC
:1045E0007047002001E001C1121F002AFBD1704773
:1045F000F8B51B4E134677880C46B9422DD8327851
:104600007178B588A94201D2491C00E00021C9B2E5
:10461000914222D071787278AA4201D2521C00E0F5
:10462000002272700F4A914217D0CD00B268002864
:1046300053510DD0002C0BD0F26879438B180146F2
:1046400022461846FFF75EFDB0682818848002E015
:104650000020A91888800020F8BD0120F8BD0000C6
:1046600010400020FFFF000010B50E4C207861784C
:10467000814216D021786088E26848438018A36898
:10468000CA00D1189A58898890472078A188884212
:1046900001D2401C00E00020207020786178814227
:1046A000E8D110BD1040002010B4CB0008339CB2FC
:1046B000930702D010BC01207047064B9A60121974
:1046C000DA6000225A701A705880998010BC104627
:1046D000704700001040002030B4214A5369402444
:1046E000234353611F4C0122A2608B0700229B0FC2
:1046F000012B04D0022B08D0032B1BD10FE01A4A48
:10470000226002782260012214E0184A2260427876
:10471000037812021A4352BA226002220AE0144AB3
:1047200022600278437812041B021A4383781A43EA
:10473000226003228A4210D2835C521C855C1B02D9
:104740002B43521C855C1B022B431B02521C855CB5
:104750002B432360521C8A42EED3206830BC704742
:1047600000100240003002409D9EA56A0ACD469787
:10477000D02160CC70B50C46054601210420FFF71E
:10478000D3FD01210820FFF7CFFDA1B22846FFF796
:104790004DFD70BD70B586B001210420FFF7C4FD4A
:1047A00001210820FFF7C0FD01240E4E00250094D2
:1047B0006946304602950194FFF7DAFC01944020E7
:1047C000094C0090694602952046FFF7D1FC012173
:1047D0003046FFF729FD40212046FFF725FD06B0B2
:1047E00070BD0000000C01400008014010B501211F
:1047F0000148FFF7D1FE10BD0038014008B51C206C
:104800006946087000204870012088706846FFF7EC
:104810000FFD012202490348FFF7A4FE08BD000076
:104820002505000000380140F8B500240D46064675
:1048300000290DD9074F80213846FFF7BBFE01281C
:10484000F9D1315D3846FFF7C0FE641CAC42F2D3AB
:10485000F8BD00000038014018B401236C4689B24D
:104860002370044B186059609A6020780028FCD1AE
:1048700018BC70470458002010B5B0B0C0221349CE
:104880006846FFF73FFC01200190BC2101A8FFF71B
:1048900023FF0F4C00902046FFF706FDC02269461B
:1048A0002046FFF72FFDBC21201DFFF715FF0099C3
:1048B000884207D1BFF34F8F07490648C860BFF34E
:1048C0004F8FFEE7012030B010BD00000020000136
:1048D000002000010400FA0500ED00E0134D012066
:1048E0002C46C007044312480463FFF753FF1148E6
:1048F000854202D10121104805E081204004854213
:1049000003D140210D48FFF735FF10210C4A080163
:10491000FFF7CAFEFFF7DAFCFFF770FFFFF766FF4D
:10492000FFF7A2FE20BF40BF30BFF9E70040000103
:104930000070004000400001000C014000080140F0
:104940007C430020F0B5007883B0012823D12848AB
:104950000178AA291FD1417807291CD18178FF2429
:104960000134012905D1C178022902D10079032837
:1049700013D020A0006800906D46032621461E48F3
:10498000FFF7D9FB324629461B48FFF7BBFB214600
:104990001948FFF749FF03B0F0BD18A00068009068
:1049A0006D460326274621461348FFF7C4FB3246CF
:1049B00029461148FFF7A6FB39460F48FFF734FF99
:1049C000FFF75AFF0028E6D10DA00068019001AC66
:1049D000032539460848FFF7AEFB2A46214606481C
:1049E000FFF790FB39460448FFF71EFF03B0F0BD08
:1049F00004570020AA07010004560020AA0700005F
:104A0000AA07020040BA7047C0BA70470138FDD10A
:104A100070470000F7B50325AD06286A82B0164638
:104A20000C46400840002862286A02210843286298
:104A3000286A8007FCD46620686001272F61A86A75
:104A4000C005FCD5992068602F61A86AC005FCD517
:104A5000FF209130FFF7DAFFFF230133AB62684696
:104A6000EF60352169602F61A96AC905FCD5AB6289
:104A7000A969EF60C9B205226A602F61AA6AD205EE
:104A8000FCD5AB62AA690902D2B211430180C80702
:104A900002D0032005B0F0BDAB626869FF21083188
:104AA000884368616869C91E08436861029800020A
:104AB000483068600820A860EE602F61A86AC005D1
:104AC000FCD5FF200130A8620023F61CB0080ED0F0
:104AD000B2081148006899006054060A09194E701E
:104AE000060C000E8E705B1CC8709A42F1D8FF2035
:104AF0000130A8626869FF210831884368616869EC
:104B000038436861286A800880002862286A384330
:104B10002862002005B0F0BD8000000C0320800654
:104B20004169FF22083291434161426901210A43F0
:104B30004261026A920892000262026A0A430262B9
:104B4000704700000138FDD170470000F0B4032425
:104B5000A406236A5B085B002362236A02252B43B9
:104B60002362236A9B07FCD4FF230133A362656998
:104B7000DE1DB543656165691E1D35436561000233
:104B80006B3060600820A060E26001262661A06AA8
:104B9000C005FCD5A3620023D21C90080ED0950856
:104BA0000F4800689A008854070A52185770070C7B
:104BB000000E97705B1CD0709D42F1D86069FF2198
:104BC000083188436061606930436061206A800811
:104BD00080002062206A30432062F0BC00207047D1
:104BE0008000000CF8B5064601200025C00486426E
:104BF00001D90520F8BD0324A406206A400840001E
:104C00002062206A022108432062206A8007FCD4C7
:104C1000FF270137A76200F0BBF8002801D0032569
:104C200015E00620606001212161A06AC005FCD565
:104C3000A7623002203060602161A06AC005FCD507
:104C4000A7620C4800F0C8F8002800D1022560696E
:104C5000FF21083188436061606901210843606178
:104C6000206A800880002062206A0843206228466B
:104C7000F8BD0000E6960100F7B506460120C00425
:104C800082B01546864202D9052005B0F0BD03204A
:104C90008006016A490849000162016A0222114343
:104CA0000162016A8907FCD4FF2101318162F2B2FD
:104CB0008C1AA54200D8ACB20398009000F068F8B6
:104CC000002840D106214806416001210161816A26
:104CD000C905FCD5FF2101310320800681624169AD
:104CE000FF2208329143416141690422114341612D
:104CF000310232314160C4600022002C16D9009884
:104D000087183B78F87819467B7800061B02194310
:104D1000BB781B04194301430802F978000A09060D
:104D2000084319490860121DA242E8D3012103205B
:104D300080060161816AC905FCD5FF2101318162CC
:104D4000124800F049F8A54209D003983619001915
:104D50002D1BFF2401340390A542ADD8ABE70320FF
:104D600080064169FF220832914341614169012275
:104D700011434161016A890889000162016A114396
:104D80000162002005B0F0BD8000000C1A06000092
:104D900038B40125032080066A46C560352141608C
:104DA0000561816AC905FCD5FF24013484628169EB
:104DB000C560CBB2052141600561816AC905FCD59A
:104DC000846280691902C0B2014388B21180C007B1
:104DD00000D0012038BC7047F8B40021012503221F
:104DE00092066B46D560352454601561946AE405DB
:104DF000FCD5FF27013797629469D560E4B2052698
:104E000056601561966AF605FCD59762966924028C
:104E1000F6B234431C80E30722D0814202D9F8BCA9
:104E200000207047032292066B46D56035245460FB
:104E30001561491C946AE405FCD597629469D560B4
:104E4000E4B2052656601561966AF605FCD59762B0
:104E500092692402D2B21443A2B21C80D207DCD1E0
:104E6000F8BC01207047000040BA7047C0BA7047D4
:104E70000138FDD170470000F7B50326B606306A49
:104E800082B015460F46400840003062306A022169
:104E900008433062306A8007FCD4662070600124C9
:104EA0003461B06AC005FCD5992070603461B06A85
:104EB000C005FCD5FF209130FFF7DAFFFF2001305D
:104EC000B06200F099F8002802D0032005B0F0BDD0
:104ED000FF210131B1620620706001203061B06AAB
:104EE000C005FCD5FF200130B062B0627169C01D01
:104EF0008143716170690421084370610298000266
:104F000042307060F5600024002D18D93B191A78E2
:104F1000D97810465A780906120210439A7812047A
:104F2000104308430002D978000A090608433049B3
:104F300008606420FFF79CFF241DAC42E6D30121EA
:104F40003161B06AC005FCD5FF250135B562294F36
:104F500000206A46F160352373603161B36ADB0576
:104F6000FCD5B562B3690121DBB2F1600524746040
:104F7000316131468E6AF605FCD58D628E691B0261
:104F8000F6B233431380DA071ED0B84201D90220AB
:104F90001BE001266A46CE6035234B600E61401C43
:104FA0008B6ADB05FCD58D628B69CE60DBB24C6011
:104FB0000E618E6AF605FCD58D628E691B02F6B213
:104FC00033431380DA07E0D100208D624A69FF2362
:104FD00008339A434A614B69012213434B610B6AC0
:104FE0009B089B000B620B6A13430B6205B0F0BD7C
:104FF0008000000C1A06000038B40125032080064A
:105000006A46C560352141600561816AC905FCD5E4
:10501000FF24013484628169C560CBB205214160FF
:105020000561816AC905FCD5846280691902C0B234
:10503000014388B21180C00700D0012038BC7047FE
:10504000032080064169FF22083291434161426991
:1050500001210A434261026A920892000262026AD6
:105060000A4302627047000040BA7047C0BA7047F6
:105070000138FDD170470000F8B503260746B60693
:10508000306A400840003062306A022108433062D2
:10509000306A8007FCD46620706001243461B06AF5
:1050A000C005FCD5992070603461B06AC005FCD59C
:1050B000FF209130FFF7DCFFFF250135B562A80323
:1050C000874201D90520F8BD6846F460352171603A
:1050D0003461B16AC905FCD5B562B169F460CAB280
:1050E000052373603461B16AC905FCD5B56211024C
:1050F000B269D2B211430180C807E5D1062031461A
:1051000070603461886AC005FCD58D623802443015
:1051100048600C61886AC005FCD58D62274F00206D
:105120006A46CC6035234B600C618B6ADB05FCD58D
:105130008D628B690126DBB2CE6005244C600E6166
:105140008E6AF605FCD58D628E691B02F6B233437A
:105150001380DA071ED0B84201D902201BE00126D5
:105160006A46CE6035234B600E61401C8B6ADB05BE
:10517000FCD58D628B69CE60DBB24C600E618E6AAD
:10518000F605FCD58D628E691B02F6B2334313809F
:10519000DA07E0D100208D624A69FF2308339A4381
:1051A0004A614A6901231A434A610A6A92089200D5
:1051B0000A620A6A1A430A62F8BD0000E696010014
:1051C000032080064169FF22083291434161426910
:1051D00001210A434261026A920892000262026A55
:1051E0000A4302627047000040BA7047C0BA704775
:1051F00030B4012503218906CD6035224A600D6156
:105200008A6AD205FCD5FF2401348C628A69CD609C
:10521000D3B205224A600D618A6AD205FCD58C6240
:1052200089691A02C9B20A43028030BC0020704763
:10523000F0B503240646A406206A83B04008400067
:105240002062206A022108432062206A8007FCD481
:10525000FF250135A562012701A8FFF7C9FF6846B0
:105260008088C007F8D1A562694608806846FFF7C4
:10527000BFFFA56269460888310B3E460A318E4061
:10528000064301A8FFF7B4FF68468088C007F8D13D
:10529000A562062060602761A06AC005FCD5A562F2
:1052A0006069FF2108318843606160690421084317
:1052B000606167600220E060194806602761A06AAB
:1052C000C005FCD5FF200130A062164E002501A8C4
:1052D000FFF78EFF68468088C00702D10CE00220ED
:1052E0000BE001A86D1CFFF783FF68468088C007AC
:1052F00002D0B542F5D9F2E70020FF210131A162C9
:105300006269C91D8A436261616939436161216AC9
:10531000890889002162216A3943216203B0F0BD06
:105320008000000C58140000485300010040002089
:1053300020000000D24500016853000120400020F9
:10534000F01F0000E2450001000000000000000026
:10535000000000000000000000000000000000004D
:08536000000000000000000045
:04000005010040C1F5
:00000001FF
